{
  "_format": "hh-sol-artifact-1",
  "contractName": "F1CardPacks",
  "sourceName": "contracts/F1CardPacks.sol",
  "abi": [
    {
      "inputs": [
        {
          "internalType": "string",
          "name": "_uri",
          "type": "string"
        }
      ],
      "stateMutability": "nonpayable",
      "type": "constructor"
    },
    {
      "inputs": [
        {
          "internalType": "address",
          "name": "sender",
          "type": "address"
        },
        {
          "internalType": "uint256",
          "name": "balance",
          "type": "uint256"
        },
        {
          "internalType": "uint256",
          "name": "needed",
          "type": "uint256"
        },
        {
          "internalType": "uint256",
          "name": "tokenId",
          "type": "uint256"
        }
      ],
      "name": "ERC1155InsufficientBalance",
      "type": "error"
    },
    {
      "inputs": [
        {
          "internalType": "address",
          "name": "approver",
          "type": "address"
        }
      ],
      "name": "ERC1155InvalidApprover",
      "type": "error"
    },
    {
      "inputs": [
        {
          "internalType": "uint256",
          "name": "idsLength",
          "type": "uint256"
        },
        {
          "internalType": "uint256",
          "name": "valuesLength",
          "type": "uint256"
        }
      ],
      "name": "ERC1155InvalidArrayLength",
      "type": "error"
    },
    {
      "inputs": [
        {
          "internalType": "address",
          "name": "operator",
          "type": "address"
        }
      ],
      "name": "ERC1155InvalidOperator",
      "type": "error"
    },
    {
      "inputs": [
        {
          "internalType": "address",
          "name": "receiver",
          "type": "address"
        }
      ],
      "name": "ERC1155InvalidReceiver",
      "type": "error"
    },
    {
      "inputs": [
        {
          "internalType": "address",
          "name": "sender",
          "type": "address"
        }
      ],
      "name": "ERC1155InvalidSender",
      "type": "error"
    },
    {
      "inputs": [
        {
          "internalType": "address",
          "name": "operator",
          "type": "address"
        },
        {
          "internalType": "address",
          "name": "owner",
          "type": "address"
        }
      ],
      "name": "ERC1155MissingApprovalForAll",
      "type": "error"
    },
    {
      "inputs": [
        {
          "internalType": "address",
          "name": "owner",
          "type": "address"
        }
      ],
      "name": "OwnableInvalidOwner",
      "type": "error"
    },
    {
      "inputs": [
        {
          "internalType": "address",
          "name": "account",
          "type": "address"
        }
      ],
      "name": "OwnableUnauthorizedAccount",
      "type": "error"
    },
    {
      "anonymous": false,
      "inputs": [
        {
          "indexed": true,
          "internalType": "address",
          "name": "account",
          "type": "address"
        },
        {
          "indexed": true,
          "internalType": "address",
          "name": "operator",
          "type": "address"
        },
        {
          "indexed": false,
          "internalType": "bool",
          "name": "approved",
          "type": "bool"
        }
      ],
      "name": "ApprovalForAll",
      "type": "event"
    },
    {
      "anonymous": false,
      "inputs": [
        {
          "indexed": true,
          "internalType": "address",
          "name": "previousOwner",
          "type": "address"
        },
        {
          "indexed": true,
          "internalType": "address",
          "name": "newOwner",
          "type": "address"
        }
      ],
      "name": "OwnershipTransferred",
      "type": "event"
    },
    {
      "anonymous": false,
      "inputs": [
        {
          "indexed": true,
          "internalType": "address",
          "name": "operator",
          "type": "address"
        },
        {
          "indexed": true,
          "internalType": "address",
          "name": "from",
          "type": "address"
        },
        {
          "indexed": true,
          "internalType": "address",
          "name": "to",
          "type": "address"
        },
        {
          "indexed": false,
          "internalType": "uint256[]",
          "name": "ids",
          "type": "uint256[]"
        },
        {
          "indexed": false,
          "internalType": "uint256[]",
          "name": "values",
          "type": "uint256[]"
        }
      ],
      "name": "TransferBatch",
      "type": "event"
    },
    {
      "anonymous": false,
      "inputs": [
        {
          "indexed": true,
          "internalType": "address",
          "name": "operator",
          "type": "address"
        },
        {
          "indexed": true,
          "internalType": "address",
          "name": "from",
          "type": "address"
        },
        {
          "indexed": true,
          "internalType": "address",
          "name": "to",
          "type": "address"
        },
        {
          "indexed": false,
          "internalType": "uint256",
          "name": "id",
          "type": "uint256"
        },
        {
          "indexed": false,
          "internalType": "uint256",
          "name": "value",
          "type": "uint256"
        }
      ],
      "name": "TransferSingle",
      "type": "event"
    },
    {
      "anonymous": false,
      "inputs": [
        {
          "indexed": false,
          "internalType": "string",
          "name": "value",
          "type": "string"
        },
        {
          "indexed": true,
          "internalType": "uint256",
          "name": "id",
          "type": "uint256"
        }
      ],
      "name": "URI",
      "type": "event"
    },
    {
      "inputs": [
        {
          "internalType": "address",
          "name": "account",
          "type": "address"
        },
        {
          "internalType": "uint256",
          "name": "id",
          "type": "uint256"
        }
      ],
      "name": "balanceOf",
      "outputs": [
        {
          "internalType": "uint256",
          "name": "",
          "type": "uint256"
        }
      ],
      "stateMutability": "view",
      "type": "function"
    },
    {
      "inputs": [
        {
          "internalType": "address[]",
          "name": "accounts",
          "type": "address[]"
        },
        {
          "internalType": "uint256[]",
          "name": "ids",
          "type": "uint256[]"
        }
      ],
      "name": "balanceOfBatch",
      "outputs": [
        {
          "internalType": "uint256[]",
          "name": "",
          "type": "uint256[]"
        }
      ],
      "stateMutability": "view",
      "type": "function"
    },
    {
      "inputs": [],
      "name": "buyPack",
      "outputs": [],
      "stateMutability": "payable",
      "type": "function"
    },
    {
      "inputs": [
        {
          "internalType": "uint256",
          "name": "",
          "type": "uint256"
        }
      ],
      "name": "cardWeights",
      "outputs": [
        {
          "internalType": "uint256",
          "name": "",
          "type": "uint256"
        }
      ],
      "stateMutability": "view",
      "type": "function"
    },
    {
      "inputs": [],
      "name": "contractURI",
      "outputs": [
        {
          "internalType": "string",
          "name": "",
          "type": "string"
        }
      ],
      "stateMutability": "view",
      "type": "function"
    },
    {
      "inputs": [
        {
          "internalType": "address",
          "name": "account",
          "type": "address"
        },
        {
          "internalType": "address",
          "name": "operator",
          "type": "address"
        }
      ],
      "name": "isApprovedForAll",
      "outputs": [
        {
          "internalType": "bool",
          "name": "",
          "type": "bool"
        }
      ],
      "stateMutability": "view",
      "type": "function"
    },
    {
      "inputs": [],
      "name": "owner",
      "outputs": [
        {
          "internalType": "address",
          "name": "",
          "type": "address"
        }
      ],
      "stateMutability": "view",
      "type": "function"
    },
    {
      "inputs": [],
      "name": "packPrice",
      "outputs": [
        {
          "internalType": "uint256",
          "name": "",
          "type": "uint256"
        }
      ],
      "stateMutability": "view",
      "type": "function"
    },
    {
      "inputs": [],
      "name": "renounceOwnership",
      "outputs": [],
      "stateMutability": "nonpayable",
      "type": "function"
    },
    {
      "inputs": [
        {
          "internalType": "address",
          "name": "from",
          "type": "address"
        },
        {
          "internalType": "address",
          "name": "to",
          "type": "address"
        },
        {
          "internalType": "uint256[]",
          "name": "ids",
          "type": "uint256[]"
        },
        {
          "internalType": "uint256[]",
          "name": "values",
          "type": "uint256[]"
        },
        {
          "internalType": "bytes",
          "name": "data",
          "type": "bytes"
        }
      ],
      "name": "safeBatchTransferFrom",
      "outputs": [],
      "stateMutability": "nonpayable",
      "type": "function"
    },
    {
      "inputs": [
        {
          "internalType": "address",
          "name": "from",
          "type": "address"
        },
        {
          "internalType": "address",
          "name": "to",
          "type": "address"
        },
        {
          "internalType": "uint256",
          "name": "id",
          "type": "uint256"
        },
        {
          "internalType": "uint256",
          "name": "value",
          "type": "uint256"
        },
        {
          "internalType": "bytes",
          "name": "data",
          "type": "bytes"
        }
      ],
      "name": "safeTransferFrom",
      "outputs": [],
      "stateMutability": "nonpayable",
      "type": "function"
    },
    {
      "inputs": [
        {
          "internalType": "address",
          "name": "operator",
          "type": "address"
        },
        {
          "internalType": "bool",
          "name": "approved",
          "type": "bool"
        }
      ],
      "name": "setApprovalForAll",
      "outputs": [],
      "stateMutability": "nonpayable",
      "type": "function"
    },
    {
      "inputs": [
        {
          "internalType": "uint256",
          "name": "_price",
          "type": "uint256"
        }
      ],
      "name": "setPackPrice",
      "outputs": [],
      "stateMutability": "nonpayable",
      "type": "function"
    },
    {
      "inputs": [
        {
          "internalType": "string",
          "name": "_uri",
          "type": "string"
        }
      ],
      "name": "setURI",
      "outputs": [],
      "stateMutability": "nonpayable",
      "type": "function"
    },
    {
      "inputs": [
        {
          "internalType": "bytes4",
          "name": "interfaceId",
          "type": "bytes4"
        }
      ],
      "name": "supportsInterface",
      "outputs": [
        {
          "internalType": "bool",
          "name": "",
          "type": "bool"
        }
      ],
      "stateMutability": "view",
      "type": "function"
    },
    {
      "inputs": [],
      "name": "totalCards",
      "outputs": [
        {
          "internalType": "uint256",
          "name": "",
          "type": "uint256"
        }
      ],
      "stateMutability": "view",
      "type": "function"
    },
    {
      "inputs": [],
      "name": "totalSupply",
      "outputs": [
        {
          "internalType": "uint256",
          "name": "",
          "type": "uint256"
        }
      ],
      "stateMutability": "view",
      "type": "function"
    },
    {
      "inputs": [
        {
          "internalType": "address",
          "name": "newOwner",
          "type": "address"
        }
      ],
      "name": "transferOwnership",
      "outputs": [],
      "stateMutability": "nonpayable",
      "type": "function"
    },
    {
      "inputs": [
        {
          "internalType": "uint256",
          "name": "_tokenId",
          "type": "uint256"
        }
      ],
      "name": "uri",
      "outputs": [
        {
          "internalType": "string",
          "name": "",
          "type": "string"
        }
      ],
      "stateMutability": "view",
      "type": "function"
    },
    {
      "inputs": [],
      "name": "weightSum",
      "outputs": [
        {
          "internalType": "uint256",
          "name": "",
          "type": "uint256"
        }
      ],
      "stateMutability": "view",
      "type": "function"
    },
    {
      "inputs": [],
      "name": "withdrawFunds",
      "outputs": [],
      "stateMutability": "nonpayable",
      "type": "function"
    }
  ],
  "bytecode": "0x608060405266038d7ea4c6800060045560036005553480156200002157600080fd5b5060405162003859380380620038598339818101604052810190620000479190620003b2565b33816200005a816200014460201b60201c565b50600073ffffffffffffffffffffffffffffffffffffffff168173ffffffffffffffffffffffffffffffffffffffff1603620000d05760006040517f1e4fbdf7000000000000000000000000000000000000000000000000000000008152600401620000c7919062000448565b60405180910390fd5b620000e1816200015960201b60201c565b506000600190505b6005548111620001335760076001908060018154018082558091505060019003906000526020600020016000909190919091505580806200012a906200049e565b915050620000e9565b506005546008819055505062000813565b80600290816200015591906200072c565b5050565b6000600360009054906101000a900473ffffffffffffffffffffffffffffffffffffffff16905081600360006101000a81548173ffffffffffffffffffffffffffffffffffffffff021916908373ffffffffffffffffffffffffffffffffffffffff1602179055508173ffffffffffffffffffffffffffffffffffffffff168173ffffffffffffffffffffffffffffffffffffffff167f8be0079c531659141344cd1fd0a4f28419497f9722a3daafe3b4186f6b6457e060405160405180910390a35050565b6000604051905090565b600080fd5b600080fd5b600080fd5b600080fd5b6000601f19601f8301169050919050565b7f4e487b7100000000000000000000000000000000000000000000000000000000600052604160045260246000fd5b62000288826200023d565b810181811067ffffffffffffffff82111715620002aa57620002a96200024e565b5b80604052505050565b6000620002bf6200021f565b9050620002cd82826200027d565b919050565b600067ffffffffffffffff821115620002f057620002ef6200024e565b5b620002fb826200023d565b9050602081019050919050565b60005b83811015620003285780820151818401526020810190506200030b565b60008484015250505050565b60006200034b6200034584620002d2565b620002b3565b9050828152602081018484840111156200036a576200036962000238565b5b6200037784828562000308565b509392505050565b600082601f83011262000397576200039662000233565b5b8151620003a984826020860162000334565b91505092915050565b600060208284031215620003cb57620003ca62000229565b5b600082015167ffffffffffffffff811115620003ec57620003eb6200022e565b5b620003fa848285016200037f565b91505092915050565b600073ffffffffffffffffffffffffffffffffffffffff82169050919050565b6000620004308262000403565b9050919050565b620004428162000423565b82525050565b60006020820190506200045f600083018462000437565b92915050565b7f4e487b7100000000000000000000000000000000000000000000000000000000600052601160045260246000fd5b6000819050919050565b6000620004ab8262000494565b91507fffffffffffffffffffffffffffffffffffffffffffffffffffffffffffffffff8203620004e057620004df62000465565b5b600182019050919050565b600081519050919050565b7f4e487b7100000000000000000000000000000000000000000000000000000000600052602260045260246000fd5b600060028204905060018216806200053e57607f821691505b602082108103620005545762000553620004f6565b5b50919050565b60008190508160005260206000209050919050565b60006020601f8301049050919050565b600082821b905092915050565b600060088302620005be7fffffffffffffffffffffffffffffffffffffffffffffffffffffffffffffffff826200057f565b620005ca86836200057f565b95508019841693508086168417925050509392505050565b6000819050919050565b60006200060d62000607620006018462000494565b620005e2565b62000494565b9050919050565b6000819050919050565b6200062983620005ec565b62000641620006388262000614565b8484546200058c565b825550505050565b600090565b6200065862000649565b620006658184846200061e565b505050565b5b818110156200068d57620006816000826200064e565b6001810190506200066b565b5050565b601f821115620006dc57620006a6816200055a565b620006b1846200056f565b81016020851015620006c1578190505b620006d9620006d0856200056f565b8301826200066a565b50505b505050565b600082821c905092915050565b60006200070160001984600802620006e1565b1980831691505092915050565b60006200071c8383620006ee565b9150826002028217905092915050565b6200073782620004eb565b67ffffffffffffffff8111156200075357620007526200024e565b5b6200075f825462000525565b6200076c82828562000691565b600060209050601f831160018114620007a457600084156200078f578287015190505b6200079b85826200070e565b8655506200080b565b601f198416620007b4866200055a565b60005b82811015620007de57848901518255600182019150602085019450602081019050620007b7565b86831015620007fe5784890151620007fa601f891682620006ee565b8355505b6001600288020188555050505b505050505050565b61303680620008236000396000f3fe6080604052600436106101295760003560e01c8063715018a6116100ab578063c37b9bcd1161006f578063c37b9bcd146103dd578063e8a3d485146103e7578063e985e9c514610412578063e994c15d1461044f578063f242432a1461047a578063f2fde38b146104a357610129565b8063715018a61461030a57806378898674146103215780638195c3f81461035e5780638da5cb5b14610389578063a22cb465146103b457610129565b806318160ddd116100f257806318160ddd1461023757806324600fc3146102625780632eb2c2d614610279578063335c8b63146102a25780634e1273f4146102cd57610129565b8062fdd58e1461012e57806301ffc9a71461016b57806302fe5305146101a85780630b6af499146101d15780630e89341c146101fa575b600080fd5b34801561013a57600080fd5b5061015560048036038101906101509190611dbc565b6104cc565b6040516101629190611e0b565b60405180910390f35b34801561017757600080fd5b50610192600480360381019061018d9190611e7e565b610526565b60405161019f9190611ec6565b60405180910390f35b3480156101b457600080fd5b506101cf60048036038101906101ca9190612027565b610608565b005b3480156101dd57600080fd5b506101f860048036038101906101f39190612070565b61061c565b005b34801561020657600080fd5b50610221600480360381019061021c9190612070565b61062e565b60405161022e919061211c565b60405180910390f35b34801561024357600080fd5b5061024c610669565b6040516102599190611e0b565b60405180910390f35b34801561026e57600080fd5b5061027761066f565b005b34801561028557600080fd5b506102a0600480360381019061029b91906122a7565b6106c7565b005b3480156102ae57600080fd5b506102b761076f565b6040516102c49190611e0b565b60405180910390f35b3480156102d957600080fd5b506102f460048036038101906102ef9190612439565b610775565b604051610301919061256f565b60405180910390f35b34801561031657600080fd5b5061031f610884565b005b34801561032d57600080fd5b5061034860048036038101906103439190612070565b610898565b6040516103559190611e0b565b60405180910390f35b34801561036a57600080fd5b506103736108bc565b6040516103809190611e0b565b60405180910390f35b34801561039557600080fd5b5061039e6108c2565b6040516103ab91906125a0565b60405180910390f35b3480156103c057600080fd5b506103db60048036038101906103d691906125e7565b6108ec565b005b6103e5610902565b005b3480156103f357600080fd5b506103fc610997565b604051610409919061211c565b60405180910390f35b34801561041e57600080fd5b5061043960048036038101906104349190612627565b6109c7565b6040516104469190611ec6565b60405180910390f35b34801561045b57600080fd5b50610464610a5b565b6040516104719190611e0b565b60405180910390f35b34801561048657600080fd5b506104a1600480360381019061049c9190612667565b610a61565b005b3480156104af57600080fd5b506104ca60048036038101906104c591906126fe565b610b09565b005b600080600083815260200190815260200160002060008473ffffffffffffffffffffffffffffffffffffffff1673ffffffffffffffffffffffffffffffffffffffff16815260200190815260200160002054905092915050565b60007fd9b67a26000000000000000000000000000000000000000000000000000000007bffffffffffffffffffffffffffffffffffffffffffffffffffffffff1916827bffffffffffffffffffffffffffffffffffffffffffffffffffffffff191614806105f157507f0e89341c000000000000000000000000000000000000000000000000000000007bffffffffffffffffffffffffffffffffffffffffffffffffffffffff1916827bffffffffffffffffffffffffffffffffffffffffffffffffffffffff1916145b80610601575061060082610b8f565b5b9050919050565b610610610bf9565b61061981610c80565b50565b610624610bf9565b8060048190555050565b606061063982610c93565b61064283610d27565b6040516020016106539291906127b3565b6040516020818303038152906040529050919050565b60065481565b610677610bf9565b61067f6108c2565b73ffffffffffffffffffffffffffffffffffffffff166108fc479081150290604051600060405180830381858888f193505050501580156106c4573d6000803e3d6000fd5b50565b60006106d1610df5565b90508073ffffffffffffffffffffffffffffffffffffffff168673ffffffffffffffffffffffffffffffffffffffff1614158015610716575061071486826109c7565b155b1561075a5780866040517fe237d9220000000000000000000000000000000000000000000000000000000081526004016107519291906127e2565b60405180910390fd5b6107678686868686610dfd565b505050505050565b60045481565b606081518351146107c157815183516040517f5b0599910000000000000000000000000000000000000000000000000000000081526004016107b892919061280b565b60405180910390fd5b6000835167ffffffffffffffff8111156107de576107dd611efc565b5b60405190808252806020026020018201604052801561080c5781602001602082028036833780820191505090505b50905060005b8451811015610879576108496108318287610ef590919063ffffffff16565b6108448387610f0990919063ffffffff16565b6104cc565b82828151811061085c5761085b612834565b5b6020026020010181815250508061087290612892565b9050610812565b508091505092915050565b61088c610bf9565b6108966000610f1d565b565b600781815481106108a857600080fd5b906000526020600020016000915090505481565b60085481565b6000600360009054906101000a900473ffffffffffffffffffffffffffffffffffffffff16905090565b6108fe6108f7610df5565b8383610fe3565b5050565b6004543414610946576040517f08c379a000000000000000000000000000000000000000000000000000000000815260040161093d90612926565b60405180910390fd5b6000610950611153565b9050600061095d82611195565b905061097b3382600160405180602001604052806000815250611225565b6006600081548092919061098e90612892565b91905055505050565b60606109a36000610c93565b6040516020016109b39190612992565b604051602081830303815290604052905090565b6000600160008473ffffffffffffffffffffffffffffffffffffffff1673ffffffffffffffffffffffffffffffffffffffff16815260200190815260200160002060008373ffffffffffffffffffffffffffffffffffffffff1673ffffffffffffffffffffffffffffffffffffffff16815260200190815260200160002060009054906101000a900460ff16905092915050565b60055481565b6000610a6b610df5565b90508073ffffffffffffffffffffffffffffffffffffffff168673ffffffffffffffffffffffffffffffffffffffff1614158015610ab05750610aae86826109c7565b155b15610af45780866040517fe237d922000000000000000000000000000000000000000000000000000000008152600401610aeb9291906127e2565b60405180910390fd5b610b0186868686866112be565b505050505050565b610b11610bf9565b600073ffffffffffffffffffffffffffffffffffffffff168173ffffffffffffffffffffffffffffffffffffffff1603610b835760006040517f1e4fbdf7000000000000000000000000000000000000000000000000000000008152600401610b7a91906125a0565b60405180910390fd5b610b8c81610f1d565b50565b60007f01ffc9a7000000000000000000000000000000000000000000000000000000007bffffffffffffffffffffffffffffffffffffffffffffffffffffffff1916827bffffffffffffffffffffffffffffffffffffffffffffffffffffffff1916149050919050565b610c01610df5565b73ffffffffffffffffffffffffffffffffffffffff16610c1f6108c2565b73ffffffffffffffffffffffffffffffffffffffff1614610c7e57610c42610df5565b6040517f118cdaa7000000000000000000000000000000000000000000000000000000008152600401610c7591906125a0565b60405180910390fd5b565b8060029081610c8f9190612bc0565b5050565b606060028054610ca2906129e3565b80601f0160208091040260200160405190810160405280929190818152602001828054610cce906129e3565b8015610d1b5780601f10610cf057610100808354040283529160200191610d1b565b820191906000526020600020905b815481529060010190602001808311610cfe57829003601f168201915b50505050509050919050565b606060006001610d36846113c9565b01905060008167ffffffffffffffff811115610d5557610d54611efc565b5b6040519080825280601f01601f191660200182016040528015610d875781602001600182028036833780820191505090505b509050600082602001820190505b600115610dea578080600190039150507f3031323334353637383961626364656600000000000000000000000000000000600a86061a8153600a8581610dde57610ddd612c92565b5b04945060008503610d95575b819350505050919050565b600033905090565b600073ffffffffffffffffffffffffffffffffffffffff168473ffffffffffffffffffffffffffffffffffffffff1603610e6f5760006040517f57f447ce000000000000000000000000000000000000000000000000000000008152600401610e6691906125a0565b60405180910390fd5b600073ffffffffffffffffffffffffffffffffffffffff168573ffffffffffffffffffffffffffffffffffffffff1603610ee15760006040517f01a83514000000000000000000000000000000000000000000000000000000008152600401610ed891906125a0565b60405180910390fd5b610eee858585858561151c565b5050505050565b600060208202602084010151905092915050565b600060208202602084010151905092915050565b6000600360009054906101000a900473ffffffffffffffffffffffffffffffffffffffff16905081600360006101000a81548173ffffffffffffffffffffffffffffffffffffffff021916908373ffffffffffffffffffffffffffffffffffffffff1602179055508173ffffffffffffffffffffffffffffffffffffffff168173ffffffffffffffffffffffffffffffffffffffff167f8be0079c531659141344cd1fd0a4f28419497f9722a3daafe3b4186f6b6457e060405160405180910390a35050565b600073ffffffffffffffffffffffffffffffffffffffff168273ffffffffffffffffffffffffffffffffffffffff16036110555760006040517fced3e10000000000000000000000000000000000000000000000000000000000815260040161104c91906125a0565b60405180910390fd5b80600160008573ffffffffffffffffffffffffffffffffffffffff1673ffffffffffffffffffffffffffffffffffffffff16815260200190815260200160002060008473ffffffffffffffffffffffffffffffffffffffff1673ffffffffffffffffffffffffffffffffffffffff16815260200190815260200160002060006101000a81548160ff0219169083151502179055508173ffffffffffffffffffffffffffffffffffffffff168373ffffffffffffffffffffffffffffffffffffffff167f17307eab39ab6107e8899845ad3d59bd9653f200f220920489ca2b5937696c31836040516111469190611ec6565b60405180910390a3505050565b60006001436111629190612cc1565b40334260405160200161117793929190612d89565b6040516020818303038152906040528051906020012060001c905090565b600080600854836111a69190612dc6565b90506000805b60078054905081101561121757600781815481106111cd576111cc612834565b5b9060005260206000200154826111e39190612df7565b915081831015611204576001816111fa9190612df7565b9350505050611220565b808061120f90612892565b9150506111ac565b50600554925050505b919050565b600073ffffffffffffffffffffffffffffffffffffffff168473ffffffffffffffffffffffffffffffffffffffff16036112975760006040517f57f447ce00000000000000000000000000000000000000000000000000000000815260040161128e91906125a0565b60405180910390fd5b6000806112a485856115ce565b915091506112b660008784848761151c565b505050505050565b600073ffffffffffffffffffffffffffffffffffffffff168473ffffffffffffffffffffffffffffffffffffffff16036113305760006040517f57f447ce00000000000000000000000000000000000000000000000000000000815260040161132791906125a0565b60405180910390fd5b600073ffffffffffffffffffffffffffffffffffffffff168573ffffffffffffffffffffffffffffffffffffffff16036113a25760006040517f01a8351400000000000000000000000000000000000000000000000000000000815260040161139991906125a0565b60405180910390fd5b6000806113af85856115ce565b915091506113c0878784848761151c565b50505050505050565b600080600090507a184f03e93ff9f4daa797ed6e38ed64bf6a1f0100000000000000008310611427577a184f03e93ff9f4daa797ed6e38ed64bf6a1f010000000000000000838161141d5761141c612c92565b5b0492506040810190505b6d04ee2d6d415b85acef81000000008310611464576d04ee2d6d415b85acef8100000000838161145a57611459612c92565b5b0492506020810190505b662386f26fc10000831061149357662386f26fc10000838161148957611488612c92565b5b0492506010810190505b6305f5e10083106114bc576305f5e10083816114b2576114b1612c92565b5b0492506008810190505b61271083106114e15761271083816114d7576114d6612c92565b5b0492506004810190505b6064831061150457606483816114fa576114f9612c92565b5b0492506002810190505b600a8310611513576001810190505b80915050919050565b611528858585856115fe565b600073ffffffffffffffffffffffffffffffffffffffff168473ffffffffffffffffffffffffffffffffffffffff16146115c7576000611566610df5565b905060018451036115b6576000611587600086610f0990919063ffffffff16565b9050600061159f600086610f0990919063ffffffff16565b90506115af8389898585896119ac565b50506115c5565b6115c4818787878787611b60565b5b505b5050505050565b60608060405191506001825283602083015260408201905060018152826020820152604081016040529250929050565b805182511461164857815181516040517f5b05999100000000000000000000000000000000000000000000000000000000815260040161163f92919061280b565b60405180910390fd5b6000611652610df5565b905060005b83518110156118675760006116758286610f0990919063ffffffff16565b9050600061168c8386610f0990919063ffffffff16565b9050600073ffffffffffffffffffffffffffffffffffffffff168873ffffffffffffffffffffffffffffffffffffffff16146117b957600080600084815260200190815260200160002060008a73ffffffffffffffffffffffffffffffffffffffff1673ffffffffffffffffffffffffffffffffffffffff1681526020019081526020016000205490508181101561176157888183856040517f03dee4c50000000000000000000000000000000000000000000000000000000081526004016117589493929190612e2b565b60405180910390fd5b81810360008085815260200190815260200160002060008b73ffffffffffffffffffffffffffffffffffffffff1673ffffffffffffffffffffffffffffffffffffffff16815260200190815260200160002081905550505b600073ffffffffffffffffffffffffffffffffffffffff168773ffffffffffffffffffffffffffffffffffffffff1614611854578060008084815260200190815260200160002060008973ffffffffffffffffffffffffffffffffffffffff1673ffffffffffffffffffffffffffffffffffffffff168152602001908152602001600020600082825461184c9190612df7565b925050819055505b50508061186090612892565b9050611657565b506001835103611926576000611887600085610f0990919063ffffffff16565b9050600061189f600085610f0990919063ffffffff16565b90508573ffffffffffffffffffffffffffffffffffffffff168773ffffffffffffffffffffffffffffffffffffffff168473ffffffffffffffffffffffffffffffffffffffff167fc3d58168c5ae7397731d063d5bbf3d657854427343f4c083240f7aacaa2d0f62858560405161191792919061280b565b60405180910390a450506119a5565b8373ffffffffffffffffffffffffffffffffffffffff168573ffffffffffffffffffffffffffffffffffffffff168273ffffffffffffffffffffffffffffffffffffffff167f4a39dc06d4c0dbc64b70af90fd698a233a518aa5d07e595d983b8c0526c8f7fb868660405161199c929190612e70565b60405180910390a45b5050505050565b60008473ffffffffffffffffffffffffffffffffffffffff163b1115611b58578373ffffffffffffffffffffffffffffffffffffffff1663f23a6e6187878686866040518663ffffffff1660e01b8152600401611a0d959493929190612efc565b6020604051808303816000875af1925050508015611a4957506040513d601f19601f82011682018060405250810190611a469190612f6b565b60015b611acd573d8060008114611a79576040519150601f19603f3d011682016040523d82523d6000602084013e611a7e565b606091505b506000815103611ac557846040517f57f447ce000000000000000000000000000000000000000000000000000000008152600401611abc91906125a0565b60405180910390fd5b805181602001fd5b63f23a6e6160e01b7bffffffffffffffffffffffffffffffffffffffffffffffffffffffff1916817bffffffffffffffffffffffffffffffffffffffffffffffffffffffff191614611b5657846040517f57f447ce000000000000000000000000000000000000000000000000000000008152600401611b4d91906125a0565b60405180910390fd5b505b505050505050565b60008473ffffffffffffffffffffffffffffffffffffffff163b1115611d0c578373ffffffffffffffffffffffffffffffffffffffff1663bc197c8187878686866040518663ffffffff1660e01b8152600401611bc1959493929190612f98565b6020604051808303816000875af1925050508015611bfd57506040513d601f19601f82011682018060405250810190611bfa9190612f6b565b60015b611c81573d8060008114611c2d576040519150601f19603f3d011682016040523d82523d6000602084013e611c32565b606091505b506000815103611c7957846040517f57f447ce000000000000000000000000000000000000000000000000000000008152600401611c7091906125a0565b60405180910390fd5b805181602001fd5b63bc197c8160e01b7bffffffffffffffffffffffffffffffffffffffffffffffffffffffff1916817bffffffffffffffffffffffffffffffffffffffffffffffffffffffff191614611d0a57846040517f57f447ce000000000000000000000000000000000000000000000000000000008152600401611d0191906125a0565b60405180910390fd5b505b505050505050565b6000604051905090565b600080fd5b600080fd5b600073ffffffffffffffffffffffffffffffffffffffff82169050919050565b6000611d5382611d28565b9050919050565b611d6381611d48565b8114611d6e57600080fd5b50565b600081359050611d8081611d5a565b92915050565b6000819050919050565b611d9981611d86565b8114611da457600080fd5b50565b600081359050611db681611d90565b92915050565b60008060408385031215611dd357611dd2611d1e565b5b6000611de185828601611d71565b9250506020611df285828601611da7565b9150509250929050565b611e0581611d86565b82525050565b6000602082019050611e206000830184611dfc565b92915050565b60007fffffffff0000000000000000000000000000000000000000000000000000000082169050919050565b611e5b81611e26565b8114611e6657600080fd5b50565b600081359050611e7881611e52565b92915050565b600060208284031215611e9457611e93611d1e565b5b6000611ea284828501611e69565b91505092915050565b60008115159050919050565b611ec081611eab565b82525050565b6000602082019050611edb6000830184611eb7565b92915050565b600080fd5b600080fd5b6000601f19601f8301169050919050565b7f4e487b7100000000000000000000000000000000000000000000000000000000600052604160045260246000fd5b611f3482611eeb565b810181811067ffffffffffffffff82111715611f5357611f52611efc565b5b80604052505050565b6000611f66611d14565b9050611f728282611f2b565b919050565b600067ffffffffffffffff821115611f9257611f91611efc565b5b611f9b82611eeb565b9050602081019050919050565b82818337600083830152505050565b6000611fca611fc584611f77565b611f5c565b905082815260208101848484011115611fe657611fe5611ee6565b5b611ff1848285611fa8565b509392505050565b600082601f83011261200e5761200d611ee1565b5b813561201e848260208601611fb7565b91505092915050565b60006020828403121561203d5761203c611d1e565b5b600082013567ffffffffffffffff81111561205b5761205a611d23565b5b61206784828501611ff9565b91505092915050565b60006020828403121561208657612085611d1e565b5b600061209484828501611da7565b91505092915050565b600081519050919050565b600082825260208201905092915050565b60005b838110156120d75780820151818401526020810190506120bc565b60008484015250505050565b60006120ee8261209d565b6120f881856120a8565b93506121088185602086016120b9565b61211181611eeb565b840191505092915050565b6000602082019050818103600083015261213681846120e3565b905092915050565b600067ffffffffffffffff82111561215957612158611efc565b5b602082029050602081019050919050565b600080fd5b600061218261217d8461213e565b611f5c565b905080838252602082019050602084028301858111156121a5576121a461216a565b5b835b818110156121ce57806121ba8882611da7565b8452602084019350506020810190506121a7565b5050509392505050565b600082601f8301126121ed576121ec611ee1565b5b81356121fd84826020860161216f565b91505092915050565b600067ffffffffffffffff82111561222157612220611efc565b5b61222a82611eeb565b9050602081019050919050565b600061224a61224584612206565b611f5c565b90508281526020810184848401111561226657612265611ee6565b5b612271848285611fa8565b509392505050565b600082601f83011261228e5761228d611ee1565b5b813561229e848260208601612237565b91505092915050565b600080600080600060a086880312156122c3576122c2611d1e565b5b60006122d188828901611d71565b95505060206122e288828901611d71565b945050604086013567ffffffffffffffff81111561230357612302611d23565b5b61230f888289016121d8565b935050606086013567ffffffffffffffff8111156123305761232f611d23565b5b61233c888289016121d8565b925050608086013567ffffffffffffffff81111561235d5761235c611d23565b5b61236988828901612279565b9150509295509295909350565b600067ffffffffffffffff82111561239157612390611efc565b5b602082029050602081019050919050565b60006123b56123b084612376565b611f5c565b905080838252602082019050602084028301858111156123d8576123d761216a565b5b835b8181101561240157806123ed8882611d71565b8452602084019350506020810190506123da565b5050509392505050565b600082601f8301126124205761241f611ee1565b5b81356124308482602086016123a2565b91505092915050565b600080604083850312156124505761244f611d1e565b5b600083013567ffffffffffffffff81111561246e5761246d611d23565b5b61247a8582860161240b565b925050602083013567ffffffffffffffff81111561249b5761249a611d23565b5b6124a7858286016121d8565b9150509250929050565b600081519050919050565b600082825260208201905092915050565b6000819050602082019050919050565b6124e681611d86565b82525050565b60006124f883836124dd565b60208301905092915050565b6000602082019050919050565b600061251c826124b1565b61252681856124bc565b9350612531836124cd565b8060005b8381101561256257815161254988826124ec565b975061255483612504565b925050600181019050612535565b5085935050505092915050565b600060208201905081810360008301526125898184612511565b905092915050565b61259a81611d48565b82525050565b60006020820190506125b56000830184612591565b92915050565b6125c481611eab565b81146125cf57600080fd5b50565b6000813590506125e1816125bb565b92915050565b600080604083850312156125fe576125fd611d1e565b5b600061260c85828601611d71565b925050602061261d858286016125d2565b9150509250929050565b6000806040838503121561263e5761263d611d1e565b5b600061264c85828601611d71565b925050602061265d85828601611d71565b9150509250929050565b600080600080600060a0868803121561268357612682611d1e565b5b600061269188828901611d71565b95505060206126a288828901611d71565b94505060406126b388828901611da7565b93505060606126c488828901611da7565b925050608086013567ffffffffffffffff8111156126e5576126e4611d23565b5b6126f188828901612279565b9150509295509295909350565b60006020828403121561271457612713611d1e565b5b600061272284828501611d71565b91505092915050565b600081905092915050565b60006127418261209d565b61274b818561272b565b935061275b8185602086016120b9565b80840191505092915050565b7f2e6a736f6e000000000000000000000000000000000000000000000000000000600082015250565b600061279d60058361272b565b91506127a882612767565b600582019050919050565b60006127bf8285612736565b91506127cb8284612736565b91506127d682612790565b91508190509392505050565b60006040820190506127f76000830185612591565b6128046020830184612591565b9392505050565b60006040820190506128206000830185611dfc565b61282d6020830184611dfc565b9392505050565b7f4e487b7100000000000000000000000000000000000000000000000000000000600052603260045260246000fd5b7f4e487b7100000000000000000000000000000000000000000000000000000000600052601160045260246000fd5b600061289d82611d86565b91507fffffffffffffffffffffffffffffffffffffffffffffffffffffffffffffffff82036128cf576128ce612863565b5b600182019050919050565b7f496e636f7272656374207061796d656e7420616d6f756e740000000000000000600082015250565b60006129106018836120a8565b915061291b826128da565b602082019050919050565b6000602082019050818103600083015261293f81612903565b9050919050565b7f636f6e74726163742e6a736f6e00000000000000000000000000000000000000600082015250565b600061297c600d8361272b565b915061298782612946565b600d82019050919050565b600061299e8284612736565b91506129a98261296f565b915081905092915050565b7f4e487b7100000000000000000000000000000000000000000000000000000000600052602260045260246000fd5b600060028204905060018216806129fb57607f821691505b602082108103612a0e57612a0d6129b4565b5b50919050565b60008190508160005260206000209050919050565b60006020601f8301049050919050565b600082821b905092915050565b600060088302612a767fffffffffffffffffffffffffffffffffffffffffffffffffffffffffffffffff82612a39565b612a808683612a39565b95508019841693508086168417925050509392505050565b6000819050919050565b6000612abd612ab8612ab384611d86565b612a98565b611d86565b9050919050565b6000819050919050565b612ad783612aa2565b612aeb612ae382612ac4565b848454612a46565b825550505050565b600090565b612b00612af3565b612b0b818484612ace565b505050565b5b81811015612b2f57612b24600082612af8565b600181019050612b11565b5050565b601f821115612b7457612b4581612a14565b612b4e84612a29565b81016020851015612b5d578190505b612b71612b6985612a29565b830182612b10565b50505b505050565b600082821c905092915050565b6000612b9760001984600802612b79565b1980831691505092915050565b6000612bb08383612b86565b9150826002028217905092915050565b612bc98261209d565b67ffffffffffffffff811115612be257612be1611efc565b5b612bec82546129e3565b612bf7828285612b33565b600060209050601f831160018114612c2a5760008415612c18578287015190505b612c228582612ba4565b865550612c8a565b601f198416612c3886612a14565b60005b82811015612c6057848901518255600182019150602085019450602081019050612c3b565b86831015612c7d5784890151612c79601f891682612b86565b8355505b6001600288020188555050505b505050505050565b7f4e487b7100000000000000000000000000000000000000000000000000000000600052601260045260246000fd5b6000612ccc82611d86565b9150612cd783611d86565b9250828203905081811115612cef57612cee612863565b5b92915050565b6000819050919050565b6000819050919050565b612d1a612d1582612cf5565b612cff565b82525050565b60008160601b9050919050565b6000612d3882612d20565b9050919050565b6000612d4a82612d2d565b9050919050565b612d62612d5d82611d48565b612d3f565b82525050565b6000819050919050565b612d83612d7e82611d86565b612d68565b82525050565b6000612d958286612d09565b602082019150612da58285612d51565b601482019150612db58284612d72565b602082019150819050949350505050565b6000612dd182611d86565b9150612ddc83611d86565b925082612dec57612deb612c92565b5b828206905092915050565b6000612e0282611d86565b9150612e0d83611d86565b9250828201905080821115612e2557612e24612863565b5b92915050565b6000608082019050612e406000830187612591565b612e4d6020830186611dfc565b612e5a6040830185611dfc565b612e676060830184611dfc565b95945050505050565b60006040820190508181036000830152612e8a8185612511565b90508181036020830152612e9e8184612511565b90509392505050565b600081519050919050565b600082825260208201905092915050565b6000612ece82612ea7565b612ed88185612eb2565b9350612ee88185602086016120b9565b612ef181611eeb565b840191505092915050565b600060a082019050612f116000830188612591565b612f1e6020830187612591565b612f2b6040830186611dfc565b612f386060830185611dfc565b8181036080830152612f4a8184612ec3565b90509695505050505050565b600081519050612f6581611e52565b92915050565b600060208284031215612f8157612f80611d1e565b5b6000612f8f84828501612f56565b91505092915050565b600060a082019050612fad6000830188612591565b612fba6020830187612591565b8181036040830152612fcc8186612511565b90508181036060830152612fe08185612511565b90508181036080830152612ff48184612ec3565b9050969550505050505056fea2646970667358221220bab904fc53acd1afaf3663a38a7c0206124c6236ea0bbdcc308078684bae941764736f6c63430008140033",
  "linkReferences": {},
  "deployedLinkReferences": {}
}